:020000040800F2
:100000008087002099020008D92300086122000897
:10001000D52300088F0400085525000800000000C3
:100020000000000000000000000000007D24000827
:10003000BF05000800000000DD2300087F24000841
:10004000B3020008B3020008B3020008B3020008BC
:10005000B3020008B3020008B3020008B3020008AC
:10006000B3020008B3020008B3020008B30200089C
:1000700095040008B3020008B3020008B3020008A8
:10008000B3020008A5040008B3020008B302000888
:10009000B3020008B3020008B3020008B30200086C
:1000A000B3020008B3020008B3020008B30200085C
:1000B000B3020008B3020008B3020008B30200084C
:1000C000B3020008B3020008B3020008B30200083C
:1000D000B3020008B3020008B3020008B30200082C
:1000E000B3020008B3020008B3020008B30200081C
:1000F000B3020008B3020008B3020008B30200080C
:10010000B3020008B3020008B3020008B3020008FB
:10011000B3020008B3020008B3020008B3020008EB
:10012000B3020008B3020008B3020008B3020008DB
:10013000B3020008B3020008B3020008B3020008CB
:10014000B3020008B3020008B3020008B3020008BB
:10015000B3020008B3020008B3020008B3020008AB
:10016000B3020008B3020008B3020008B30200089B
:10017000B3020008B3020008B30200080000000048
:10018000B3020008B3020008B3020008B30200087B
:10019000B3020008B3020008B3020008B30200086B
:1001A000B3020008B3020008B3020008B30200085B
:1001B000B3020008B3020008B3020008B30200084B
:1001C000B3020008B302000800000000B3020008F8
:1001D000B3020008B3020008B3020008B30200082B
:1001E000B3020008B3020008B3020008B30200081B
:1001F000B3020008B302000800F002F800F03CF877
:100200000AA090E8000C82448344AAF10107DA4571
:1002100001D100F031F8AFF2090EBAE80F0013F087
:10022000010F18BFFB1A43F0010318470824000010
:1002300028240000103A24BF78C878C1FAD85207A1
:1002400024BF30C830C144BF04680C607047000050
:100250000023002400250026103A28BF78C1FBD8CF
:10026000520728BF30C148BF0B6070471FB502F06E
:10027000CBF91FBD10B510BD00F0CFF81146FFF748
:10028000F5FF02F085F900F0EDF803B4FFF7F2FF97
:1002900003BC00F0F5F80000094880470948004712
:1002A000FEE7FEE7FEE7FEE7FEE7FEE7FEE7FEE726
:1002B000FEE7FEE704480549054A064B7047000083
:1002C00041250008F9010008808100208087002076
:1002D000808300208083002053EA020C00F06980B4
:1002E0002DE9F04B4FF00006002B1FBFB3FA83F54A
:1002F00003FA05F424FA05F65E4012BF1643B2FA7B
:1003000082F502FA05F4C5F120051EBF22FA05FCAC
:1003100044EA0C04203556EA044C4FEA144418BF52
:10032000641C4FF000084FF00009904271EB030C81
:1003300039D3002919BFB1FA81F701FA07F6B0FAEB
:1003400080F700FA07F6C7F120071EBF20FA07FC66
:1003500046EA0C062037B6FBF4FCA7EB0507103F76
:1003600007F01F0BCBF120060CFA0BFB2CFA06F65C
:1003700044BFB3460026202FA4BF5E464FF0000BBB
:100380005BEA060C08BF4FF0010B19EB0B09ABFB46
:10039000027C48EB0608C01B06FB02CC0BFB03CC1F
:1003A00071EB0C01C1E70B46024641464846BDE8E9
:1003B000F08B13B54FF000004FF00001AFF3008059
:1003C000BDE81C4070474FF0000200B5134694464C
:1003D0009646203922BFA0E80C50A0E80C50B1F19D
:1003E0002001BFF4F7AF090728BFA0E80C5048BFB1
:1003F0000CC05DF804EB890028BF40F8042B08BF4F
:10040000704748BF20F8022B11F0804F18BF00F84A
:10041000012B7047704770477047754600F02CF805
:10042000AE4605006946534620F00700854618B0E1
:1004300020B5FFF73FFFBDE820404FF000064FF02A
:1004400000074FF000084FF0000B21F00701AC4609
:10045000ACE8C009ACE8C009ACE8C009ACE8C00928
:100460008D46704710B50446AFF300802046BDE8C6
:100470001040FFF70ABF0000004870471C810020B1
:1004800001491820ABBEFEE726000200704700BFFE
:10049000FEE7000010B5024800F09CF810BD000017
:1004A000BC00002010B5024800F094F810BD000018
:1004B0005C0000200146087810381823B0FBF3F2E6
:1004C0000848805CC865032A05D908686FF30900ED
:1004D000001D886503E008686FF309008865886D72
:1004E0007047000012260008014600208A6A8B69C6
:1004F000CBB932B1012A0DD0022A03D0032A10D180
:100500000EE000BFCB6A03F08073B3F1807F00D1AF
:10051000012007E0CB6AB3F1C07F00D1012001E0E8
:1005200000E000BF34E08B69B3F5005F1AD132B14F
:10053000012A07D0022A03D0032A11D10AE000BF02
:1005400001200EE0CB6A03F08073B3F1807F00D10D
:10055000012006E0CB6AB3F1C07F00D1012000E0AA
:1005600000BF15E032B1012A05D0022A04D0032AC7
:100570000CD103E000BF00BF012008E0CB6A03F00C
:100580008073B3F1807F00D1012000E000BF00BF85
:10059000704730B50468246824F4802405682C6012
:1005A000046863608468402C04D10468A260046815
:1005B000E16003E00468A1600468E26030BD704758
:1005C00072B601229103024800F00EFB00BFFEE765
:1005D00000040240F8B50446002000908C480068F2
:1005E0004FF41651B0FBF1F7A56D2E6894F85C102E
:1005F00008208840304098B12068006800F004006E
:1006000070B12068006820F004002168086094F848
:100610005C1008208840A860606D40F001006065B3
:1006200094F85C1001208840304068B1206840692F
:1006300000F0800040B194F85C1001208840A86070
:10064000606D40F00200606594F85C100420884002
:10065000304068B12068006800F0020040B194F8B2
:100660005C1004208840A860606D40F00400606564
:1006700094F85C1010208840304078B320680068FF
:1006800000F0080050B394F85C1010208840A86077
:100690002068006800F4802080B12068006800F4C1
:1006A000002028B9206CC8B12046216C884715E08D
:1006B000A06C98B12046A16C88470FE020680068C4
:1006C00000F4807028B92068006820F008002168D4
:1006D0000860206C10B12046216C884794F85C10AB
:1006E000202088403040002865D02068006800F055
:1006F000100000285FD094F85C1020208840A8608B
:1007000094F83500052828D12068006820F01600EC
:10071000216808602068406920F0800021684861F5
:10072000206C08B9A06C28B12068006820F008008F
:100730002168086094F85C103F208840A860012080
:1007400084F8350000BF002084F8340000BF206D1D
:1007500010B12046216D8847F8BD2068006800F47C
:10076000802080B12068006800F4002028B9606C07
:1007700010B12046616C88471DE0E06BD8B120467F
:10078000E16B884717E02068006800F4807068B962
:100790002068006820F0100021680860012084F8BB
:1007A000350000BF002084F8340000BFE06B10B1BA
:1007B0002046E16B8847606D38B3606D00F0010042
:1007C000F0B1052084F835002068006820F00100B1
:1007D0002168086000BF0098401C0090B84200D912
:1007E00005E02068006800F001000028F3D100BF98
:1007F000012084F8350000BF002084F8340000BFD9
:10080000E06C10B12046E16C884700BFA4E700000F
:100810000C0000202DE9F0410446002500F0EAF923
:10082000074614B90120BDE8F081606A00B100BF3D
:10083000022084F8350000BF002084F8340000BF97
:100840002068006820F00100216808600AE000F0DC
:10085000D1F9C01B052805D920206065032084F844
:100860003500E0E72068006800F001000028EED1C4
:100870002068056821480540D4E901010843E16882
:1008800008432169084361690843A1690843E16994
:100890000843216A08430543606A042803D1D4E968
:1008A0000B0108430543206805602068456925F071
:1008B0000705606A0543606A04280DD1A06A0543F4
:1008C000E06A48B12046FFF70FFE28B1402060657E
:1008D000012084F83500A6E7206845612046FFF72F
:1008E000E9FD064694F85C103F208840B060002087
:1008F0006065012084F83500002094E73F8010E017
:100900002DE9F04704460D4616461F464FF00008F5
:10091000D4F8589000BF94F83400012802D1022086
:10092000BDE8F087012084F8340000BF94F835005A
:1009300001282BD1022084F83500002060653B4659
:10094000324629462046FFF724FE94F85C103F20EB
:100950008840C9F808002068006840F01600216847
:1009600008602068406940F0800021684861206C80
:1009700028B12068006840F00800216808602068FD
:10098000006840F001002168086006E000BF002018
:1009900084F8340000BF4FF002084046C0E7000072
:1009A00070B5044600F026F906462546681C10B1CD
:1009B00004480078054400BF00F01CF9801BA842E1
:1009C000FAD370BD08000020F8B502460B4600219E
:1009D00000250024002000BFDEE0012606FA01F514
:1009E0001E6806EA0504AC4272D11E7906F00306C1
:1009F000012E04D01E7906F00306022E13D1906852
:100A00004F000326BE40B0434F00DE68BE40304377
:100A10009060506801268E40B0431E79C6F30016E0
:100A20008E40304350601E7906F00306032E09D035
:100A3000D0684F000326BE40B0434F009E68BE40C2
:100A40003043D0601E7906F00306022E13D1CF0882
:100A500002F1200656F827004E07F70E0F26BE407B
:100A6000B0434F07FF0E1E69BE403043CF0802F16E
:100A7000200646F8270010684F000326BE40B0430A
:100A80001E7906F003064F00BE40304310605E68DA
:100A900006F44036002E7ED000BF414E366846F444
:100AA00080463F4F3E603E46366806F480460096DC
:100AB00000BF00BF3B4E8F0856F827008E07370F48
:100AC0000F26BE40B043384EB24202D100262EE07F
:100AD00061E0364EB24201D1012628E0344EB242E6
:100AE00001D1022623E0334EB24201D103261EE09B
:100AF000314EB24201D1042619E0304EB24201D14A
:100B0000052614E02E4EB24201D106260FE02D4EEE
:100B1000B24201D107260AE02B4EB24201D108268B
:100B200005E02A4EB24201D1092600E00A268F07CD
:100B30003F0FBE4030431B4E8F0846F82700244E1F
:100B40003068A0435E6806F4801606B12043204E4C
:100B50003060361D3068A0435E6806F4001606B1AA
:100B600020431B4E361D3060194E361F3068A0439F
:100B70005E6806F4003606B12043154E361F30601D
:100B8000361F3068A0435E6806F4803606B1204305
:100B90000F4E083E3060491C1029FFF41EAFF8BD0F
:100BA000443802400838014000000240000402407E
:100BB00000080240000C02400010024000140240F5
:100BC00000180240001C02400020024000240240A5
:100BD000083C014010B5426921EA020302EA01041F
:100BE00043EA0443836110BD0AB1816101E00B0453
:100BF00083617047014800687047000000000020D2
:100C000003480068034909780844014908607047AF
:100C1000000000200800002010B5032000F000F9BB
:100C20000F2000F005F800F08DF8002010BD000046
:100C300070B504460E4800784FF47A71B1FBF0F0BD
:100C40000C490968B1FBF0F5284601F0EFFA08B14C
:100C5000012070BD102C07D200222146501E00F04A
:100C6000A1F80548046001E00120F2E70020F0E768
:100C7000080000200C000020040000204178154AE4
:100C800011600178F9B1121D41681160017B0907FB
:100C9000C27A41EA0261827A41EAC241427B41EA78
:100CA0008241827B41EA4241C27B41EA0241427A6F
:100CB00041EA0221027A41EA420102781143054ADF
:100CC0000832116005E00021024A121D1160121D58
:100CD0001160704798ED00E000BF00BF00BFBFF398
:100CE0005F8F00BF00BF00BF0548006820F4803060
:100CF0000349086000200249703108607047000015
:100D000024ED00E040F001010D4A11600C497039FA
:100D1000096841F480310A4A703A116000BF00BF8F
:100D200000BFBFF34F8F00BF00BF00BF00BF00BFB9
:100D300000BFBFF36F8F00BF00BF00BF7047000050
:100D400094ED00E008B500BF0D48006840F0805009
:100D50000B4908600846006800F08050009000BF12
:100D600000BF00BF081D006840F48040091D0860F6
:100D70000846006800F48040009000BF00BF08BD36
:100D80004038024001460846002809DB00F01F03F6
:100D900001229A4043099B0003F1E023C3F800219C
:100DA00000BF70472DE9F05F80460D4616460027CC
:100DB00001F0D2FB074639462A46334601F00700C8
:100DC000C0F1070ABAF1040F02D94FF0040A01E09A
:100DD000C0F1070AD14600F1040ABAF1070F02D2A6
:100DE0004FF0000A01E0A0F1030AD4464FF0010AD7
:100DF0000AFA09FAAAF1010A0AEA020A0AFA0CFA3C
:100E00004FF0010B0BFA0CFBABF1010B0BEA030BE0
:100E10004AEA0B042146404601F0A6FBBDE8F09FDC
:100E200000BF00F00702064B19684FF6FF03194098
:100E3000044B0B4343EA0221014B196000BF70478A
:100E40000CED00E00000FA0538B5002400BF204892
:100E5000006840F080501E4908600846006800F0B5
:100E60008050009000BF00BF1A48006840F48030F6
:100E700018490860FFF7BEFE044607E0FFF7BAFE18
:100E8000001BB0F57A7F01D9032038BD11484068B6
:100E900000F48030B0F5803FF0D10E48006840F497
:100EA00000300C490860FFF7A5FE044607E0FFF795
:100EB000A1FE001BB0F57A7F01D90320E5E70548C4
:100EC000406800F40030B0F5003FF0D10020DCE7CE
:100ED00040380240007000402DE9F84304460026E7
:100EE00000250027A846A946207800F0010088B117
:100EF00000BFFE48006820F40000FC490860084676
:100F00000068616B0843F949086000BF606B08B96D
:100F10004FF00108206800F40020B0F5002F13D135
:100F2000F2488430006820F44010E16B0843EF4938
:100F300084310860E06BB0F5801F01D14FF00108EB
:100F4000E06B08B94FF00109206800F48010B0F59B
:100F5000801F13D1E5488430006820F44000216CE4
:100F60000843E24984310860206CB0F5800F01D15C
:100F70004FF00108206C08B94FF00109206800F01B
:100F80008070B0F1807F01D14FF00108207800F02F
:100F90002000202870D100BFD4483830006840F0CD
:100FA0008050D249383108600846006800F080500F
:100FB000009000BF00BFCE48006840F48070CC496C
:100FC0000860FFF717FE064607E0FFF713FE801BD9
:100FD000642802D90320BDE8F883C548006800F4FE
:100FE00080700028F1D0C1486830006800F4407576
:100FF00085B3208E00F44070A8422BD0BB486830E7
:10100000006820F44075B9486830006840F48030CA
:10101000B649683108600846006820F480300860EE
:1010200008460560006800F0010098B1FFF7E2FD96
:10103000064608E0FFF7DEFD801B41F2883188425A
:1010400001D90320C7E7A94868300068C0F3400011
:101050000028EFD000BF208E00F44070B0F5407F34
:101060000BD1A248006820F4F810A24A216B11406D
:1010700008439E49086006E010E09C48006820F4A0
:10108000F8109A490860994868300068218EC1F3C9
:101090000B01084395496831086000BF207800F0D3
:1010A0001000102810D100BF90488430006820F054
:1010B00080708E498431086008460068A16B08433F
:1010C0008A498431086000BF208800F48040B0F570
:1010D000804F09D185488830006820F44030616E27
:1010E0000843824988310860208800F40040B0F548
:1010F000004F09D17D488830006820F44020A16E5F
:1011000008437A4988310860206800F48030B0F5DF
:10111000803F09D175488830006820F44010E16EA6
:101120000843724988310860206800F40030B0F547
:10113000003F09D16D488830006820F44000216FDD
:1011400008436A4988310860207800F04000402850
:1011500009D166488830006820F00300616C0843BC
:10116000624988310860207800F08000802809D129
:101170005E488830006820F00C00A16C08435B4991
:1011800088310860208800F48070B0F5807F09D134
:1011900056488830006820F03000E16C084353491D
:1011A00088310860208800F40070B0F5007F09D114
:1011B0004E488830006820F0C000216D08434B493C
:1011C00088310860208800F48060B0F5806F09D114
:1011D00046488830006820F44070616D08434349F8
:1011E00088310860208800F40060B0F5006F09D1F4
:1011F0003E488830006820F44060A16D08433B49B8
:1012000088310860208800F48050B0F5805F09D1F3
:1012100036488830006820F44050E16D0843334977
:1012200088310860208800F40050B0F5005F09D1D3
:101230002E488830006820F44040216E08432B4936
:1012400088310860206800F48000B0F5800F09D173
:1012500026488830006820F08060A16F0843234949
:1012600088310860206800F40010B0F5001F0FD12D
:101270001E488830006820F00060E16F08431B4979
:1012800088310860E06FB0F1006F01D14FF00109C3
:10129000207800F00800082801D14FF001092068EB
:1012A00000F48020B0F5802F09D110488830006804
:1012B00020F04070616F08430C4988310860206855
:1012C00000F40000B0F5000F0AD10848883000682B
:1012D00020F08050D4F88010084304498831086019
:1012E000206800F08060B0F1806F05E008380240AF
:1012F00000700040FFFCFF0F08D1CD48006820F0CF
:101300000050D4F884100843C9490860206800F0F0
:101310000060B0F1006F0AD1C548001F006820F0DE
:101320000070D4F888100843C149091F086020687C
:1013300000F08050B0F1805F0AD1BD48001F006806
:1013400020F08060D4F88C100843B949091F086068
:10135000B8F1010F05D0206800F00070B0F1007FF7
:101360007ED1B3489038006820F08060B049903951
:101370000860FFF73FFC064606E0FFF73BFC801BDA
:10138000642801D9032026E6A94890380068C0F3F4
:10139000C0600028F1D1207800F00100B8B1606B86
:1013A000A8B9A3480C380068C0F30145A0480C3820
:1013B0000068C0F303676068800140EA054040EAC6
:1013C0000761207A41EA007099490C390860206869
:1013D00000F40020B0F5002F03D1E06BB0F5801FC2
:1013E00009D0206800F48010B0F5801F24D1206C53
:1013F000B0F5800F20D18E480C380068C0F301454D
:101400008B480C380068C0F302776068800140EABE
:101410000541207B41EA006040EA077084490C39AD
:1014200008608348001F006820F01F00616A491EA1
:1014300008437F49091F0860206800F08070B0F100
:10144000807F17D17A480C380068C0F3036578486C
:101450000C380068C0F3027760688101208A00E0E0
:1014600036E041EA004040EA056040EA0770704912
:101470000C390860206800F00070B0F1007F0DD1D9
:1014800060688101208A41EA0041207B41EA0061D5
:10149000207A41EA007066490C3908606448903847
:1014A000006840F08060624990390860FFF7A2FB55
:1014B000064606E0FFF79EFB801B642801D9032047
:1014C00089E55B4890380068C0F3C0600028F1D01F
:1014D000B9F1010F7ED156489038006820F0805055
:1014E000534990390860FFF785FB064606E0FFF791
:1014F00081FB801B642801D903206CE54C4890389F
:101500000068C0F340700028F1D1206800F400208A
:10151000B0F5002F01D1E06B38B1206800F48010E5
:10152000B0F5801F22D1206C00BB4148083800680C
:10153000C0F301453E4808380068C0F3027760698F
:10154000800140EA0541207E41EA006040EA0770E0
:10155000374908390860081D006820F4F851A06A6E
:10156000401E41EA00203249091F0860206800F44B
:101570000010B0F5001F19D1E06FB0F1006F15D168
:101580002B4808380068C0F303652948083800680C
:10159000C0F3027760698101208C41EA004040EA93
:1015A000056040EA0770224908390860207800F099
:1015B0000800082820D11E4808380068C0F30365D9
:1015C0001B4808380068C0F301476069800140EAA1
:1015D000074000E02AE040EA0561207F41EA007010
:1015E000134908390860081D006820F44030E16A9A
:1015F00008430F49091F08600D489038006840F003
:1016000080500B4990390860FFF7F4FA064606E06F
:10161000FFF7F0FA801B642801D90320DBE40448BB
:1016200090380068C0F340700028F1D00020D2E468
:101630009038024070B504460D4600260CB90120D2
:1016400070BD5C48006800F00F00A8420ED25948F7
:10165000006820F00F0028435649086008460068DB
:1016600000F00F00A84201D00120E9E7207800F047
:10167000020002281DD1207800F00400042805D1C2
:101680004D48006840F4E0504B490860207800F075
:101690000800082805D14848006840F460404649E1
:1016A00008604548006820F0F000A16808434249FE
:1016B0000860207800F0010090B36068012807D12D
:1016C0003D4808380068C0F34040A0B90120B7E7A2
:1016D0006068022807D1384808380068C0F34060C5
:1016E00048B90120ACE7344808380068C0F340002E
:1016F00008B90120A4E73048006820F003006168C1
:1017000008432D490860FFF775FA064609E0FFF720
:1017100071FA801B41F28831884202D903208FE799
:1017200007E02548006800F00C006168B0EB810F0D
:10173000EDD12048006800F00F00A8420ED91D48E6
:10174000006820F00F0028431A4908600846006826
:1017500000F00F00A84201D0012071E7207800F0CE
:101760000400042807D11448006820F4E050E16820
:10177000084311490860207800F00800082808D1C3
:101780000D48006820F46040216940EAC1000A4920
:10179000086000F019F808490968C1F30311074A05
:1017A000515CC8400649086006480068FFF740FAE7
:1017B000002045E7003C0240083802401A26000895
:1017C0000C000020040000202DE9F0470024002533
:1017D0000026A1462548006800F00C0020B104282E
:1017E00005D008283AD105E0DFF8849039E0DFF829
:1017F000849036E01D48001F006800F03F041B483D
:10180000001F006800F4800078B11A481749091FCA
:101810000968C1F38811A0FB01700146224600232C
:101820003846FEF759FD05460EE011480F49091FDD
:101830000968C1F38811A0FB01700146224600230C
:101840003846FEF749FD05460848001F0068C0F30A
:101850000140401C4600B5FBF6F902E0DFF81090AD
:1018600000BF00BF4846BDE8F087000008380240CE
:101870000024F40000127A00F8B5044600270CB9E1
:101880000120F8BD207800F00100002871D0F9484F
:10189000006800F00C0004280DD0F648006800F045
:1018A0000C00082813D1F348001F006800F48000E2
:1018B000B0F5800F0BD1EF4808380068C0F3404006
:1018C000002869D06068002866D10120D9E700BFF0
:1018D0006068B0F5803F08D1E6480838006840F4F9
:1018E0008030E449083908602EE0606868B9E14852
:1018F0000838006820F48030DE490839086008465E
:10190000006820F4802008601EE06068B0F5A02F19
:101910000DD1D8480838006840F48020D5490839EE
:1019200008600846006840F4803008600CE0D14848
:101930000838006820F48030CE490839086008462D
:10194000006820F48020086000BF606890B1FFF755
:1019500051F9054606E0FFF74DF9401B642801D90F
:1019600003208EE7C34808380068C0F340400028D1
:10197000F1D011E0FFF73EF9054606E0FFF73AF92E
:10198000401B642801D903207BE7BA480838006867
:10199000C0F340400028F1D1207800F00200022876
:1019A00069D1B448006800F00C0058B1B148006833
:1019B00000F00C0008281CD1AE48001F006800F49D
:1019C0008000B0B9AB4808380068C0F3400020B1CF
:1019D000E068012801D0012053E7A64808380068D4
:1019E00020F0F800216940EAC100A24908390860E6
:1019F00041E0E06828B39F480838006840F00100E3
:101A00009C4908390860FFF7F5F8054606E0FFF73E
:101A1000F1F8401B022801D9032032E79548083825
:101A20000068C0F340000028F1D0924808380068F0
:101A300020F0F800216940EAC1008E4908390860A9
:101A400019E08C480838006820F0010089490839FD
:101A50000860FFF7CFF8054606E0FFF7CBF8401B1C
:101A6000022801D903200CE7824808380068C0F337
:101A700040000028F1D1207800F00800082836D175
:101A80006069D0B17B486C30006840F00100794952
:101A90006C310860FFF7AEF8054606E0FFF7AAF8DC
:101AA000401B022801D90320EBE672486C30006825
:101AB000C0F340000028F1D019E06E486C30006897
:101AC00020F001006B496C310860FFF793F8054680
:101AD00006E0FFF78FF8401B022801D90320D0E66B
:101AE00064486C300068C0F340000028F1D12078D1
:101AF00000F00400042874D15E483830006800F01B
:101B0000805080B900BF5B483830006840F080509A
:101B10005849383108600846006800F0805000904D
:101B200000BF00BF01275448006800F48070B0B9BE
:101B30005148006840F480704F490860FFF75AF838
:101B4000054606E0FFF756F8401B642801D903203C
:101B500097E64948006800F480700028F2D000BF82
:101B6000A068012808D143486830006840F00100AF
:101B70004049683108602DE0A06868B93D48683088
:101B8000006820F001003B496831086008460068A1
:101B900020F0040008601DE0A06805280DD135483C
:101BA0006830006840F00400324968310860084637
:101BB000006840F0010008600CE02E4868300068C2
:101BC00020F001002B49683108600846006820F0C9
:101BD0000400086000BFA068A8B1FFF70BF8054635
:101BE00009E02EE0FFF706F8401B41F288318842F9
:101BF00001D9032045E61F4868300068C0F3400063
:101C00000028EFD013E0FEF7F5FF054608E0FEF7E9
:101C1000F1FF401B41F28831884201D9032030E6B0
:101C2000144868300068C0F340000028EFD1012F4D
:101C300007D110483830006820F080500D49383105
:101C40000860A069002854D00A48006800F00C0021
:101C5000082867D0A06902284CD1064808380068D7
:101C600020F08070034908390860FEF7C3FF05467D
:101C70000BE000000838024000700040FEF7BAFF99
:101C8000401B022801D90320FBE53F480068C0F350
:101C900040600028F2D1D4E907010843616A40EAB4
:101CA00081110122A06AC2EB500041EA00412C20C0
:101CB000005D41EA00613020005D41EA0070324978
:101CC000091D0860081F006840F08070091F086047
:101CD000FEF790FF054606E0FEF78CFF401B02284A
:101CE00001D90320CDE528480068C0F340600028F2
:101CF000F2D047E02448006820F080702249086054
:101D0000FEF778FF054606E0FEF774FF401B022849
:101D100001D90320B5E51C480068C0F340600028E5
:101D2000F2D12FE01848001D0668A069012827D0CD
:101D300006F48001E069814222D106F03F01206A69
:101D400081421DD147F6C0703040616AB0EB811FFF
:101D500016D106F440310122A06AC2EB5000B1EB6B
:101D6000004F0DD106F070612C20005DB1EB006FCB
:101D700006D106F0E0413020005DB1EB007F01D0DC
:101D800001207EE500207CE5003802407047704766
:101D90007047000070B504460CB9012070BD94F87E
:101DA000450028B9002084F84400204600F02CF8B3
:101DB000022084F845002068006820F003002168B4
:101DC0000860206805680F4805406168A0690843FD
:101DD000A1680843E1680843216908436169084331
:101DE000E1690843216A0843616A0843A16A08431C
:101DF0000543206805600020A064012084F84500A8
:101E00000020CBE70784F8FF10B5AAB004461421E0
:101E100025A8FEF7D8FA902101A8FEF7D4FA206889
:101E2000B0F1402F78D14FF080700190C020029027
:101E3000022105910391049101200A9001A8FFF766
:101E40004BF808B1FEF7BCFB00BF3448006840F413
:101E50008030324908600846006800F48030009005
:101E600000BF00BF00BF2D481038006840F00800D8
:101E70002A49103908600846006800F00800009000
:101E800000BF00BF802025900220269000202790D0
:101E900028900820299025A92148FEF795FD214882
:101EA000214908600020486000211F488160C1600E
:101EB0004FF48061016189004161890081610021E5
:101EC000C16101624162FEF7A5FC08B1FEF778FB33
:101ED00000BF1548E063846300BF12487838134997
:101EE000086000204860002110488160C1604FF404
:101EF0008061016189004161890081610021C161C6
:101F000001624162FEF786FC08B1FEF759FB00BF93
:101F100006482064846300BF2AB010BD40380240E8
:101F2000000C0240A06002405C000020BC000020C9
:101F30002DE9F04104460E46154658480068182120
:101F4000B0FBF1F04FF47A71B0FBF1F0C0EB004759
:101F500094F8458006B115B90120BDE8F081B8F1CB
:101F6000010F02D0B8F1030F7ED126632587658764
:101F700000BF94F84400012801D10220EDE70120C0
:101F800084F8440000BF0020A064042084F84500C9
:101F90004348E16B08644348E16BC8634248E16B26
:101FA000C864236803F114012B46226BE06BFEF733
:101FB000A7FC58B10820A064072084F8450000BFA2
:101FC000002084F8440000BF0120C6E720680068B4
:101FD00040F48060216808604FF04020006800F005
:101FE0000300032852D02068006840F001002168F7
:101FF000086000BFCFBB206840684FF6FE71084004
:1020000021684860206840684FF6FD7108402168EB
:102010004860206840684FF6FB71084021684860BE
:10202000206840684FF6F7710840216848602068D2
:1020300040684FF6EF7108402168486020684068AA
:102040004FF6DF71084021684860206840684FF60D
:10205000BF71084021684860012084F8450000BF36
:10206000002084F8440001E016E002E000BF0320F5
:1020700073E77F1E20688068C0F340100028B9D045
:102080002068006840F003002168086000BF00205D
:1020900084F8440000BF60E702205EE70C000020E7
:1020A00005240008DF230008132400082DE9F0416F
:1020B00004460E461546584800681821B0FBF1F05A
:1020C0004FF47A71B0FBF1F0C0EB004794F8458013
:1020D00006B115B90120BDE8F081B8F1010F02D0B9
:1020E000B8F1040F7ED100BF94F84400012801D15B
:1020F0000220F0E7012084F8440000BFE662A586D4
:10210000E5860020A064032084F845004348216C44
:1021100008644348216CC8634248216CC864236842
:1021200003F110012B46E26A206CFEF7E9FB58B17F
:102130000820A064072084F8450000BF002084F830
:10214000440000BF0120C6E72068006840F004009A
:10215000216808604FF04020006800F00300032869
:1021600052D02068006840F001002168086000BF7C
:10217000CFBB206840684FF6FE7108402168486078
:10218000206840684FF6FD7108402168486020686B
:1021900040684FF6FB71084021684860206840683D
:1021A0004FF6F771084021684860206840684FF694
:1021B000EF71084021684860206840684FF6DF7181
:1021C000084021684860206840684FF6BF710840A9
:1021D00021684860012084F8450000BF002084F891
:1021E000440001E016E002E000BF032073E77F1E19
:1021F00020688068C0F340100028B9D020680068CB
:1022000040F003002168086000BF002084F844000B
:1022100000BF60E702205EE70C0000206F2400088A
:1022200041240008132400087047704770B5044625
:102230002546681EB0F1807F01D301200FE0681EA3
:102240004FF0E02148610F214FF0FF3000F08CF992
:1022500000204FF0E021886107200861002070BD58
:1022600000BFFEE71FB50020009001900290039090
:10227000FEF732FD01208DF8000000208DF80100EE
:1022800001901F208DF8080087208DF8090000209C
:102290008DF80A008DF80B0001208DF80C008DF8E8
:1022A0000D0000208DF80E008DF80F006846FEF737
:1022B000E5FC0420FEF726FD1FBD000008B500BFA9
:1022C0000E48006840F400100C4908600846006899
:1022D00000F40010009000BF00BF002211460C2047
:1022E000FEF760FD0C20FEF74DFD00221146112087
:1022F000FEF758FD1120FEF745FD08BD30380240BD
:1023000000B587B0142102A8FEF75DF800BF1D4894
:10231000006840F080001B4908600846006800F033
:102320008000019000BF00BF00BF0846006840F079
:10233000020008600846006800F00200019000BF3B
:1023400000BF00BF0846006840F00800086008466B
:10235000006800F00800019000BF00BF002244F2B6
:1023600081010948FEF740FC44F2810002900120FF
:10237000039000200490059002A90348FEF724FB77
:1023800007B000BD303802400004024010B54FF0E5
:1023900040200F490860002048604FF400510C486D
:1023A00081604900C1600021016120214161082153
:1023B00081618901C161491001628021416240212E
:1023C0008162FFF7E7FC08B1FEF7FAF810BD0000E4
:1023D0001000002000BFFEE700BFFEE7704770B5A9
:1023E0000546AC6B206800684FF6FF310840216855
:1023F000086000206087012084F845002046FFF730
:10240000C5FC70BD70B50446A56B2846FFF7BFFC40
:1024100070BD70B50546AC6B206800684FF6FB31A7
:102420000840216808600020E086012084F845000B
:10243000A06C40F00800A0642046FFF7A9FC70BD26
:1024400070B50546AC6BE869B0F5807F0BD02068AD
:1024500000684FF6FB710840216808600020E086A4
:10246000012084F845002046FFF7DEFE70BD70B500
:102470000446A56B2846FFF7D8FE70BD704710B51F
:10248000FEF7BEFB10BD000000B593B0342106A8D6
:10249000FDF799FF142101A8FDF795FF00BF26481D
:1024A000006840F08050244908600846006800F049
:1024B0008050009000BF00BF00BF2048006840F47B
:1024C00040401E4908600846006800F44040009003
:1024D00000BF00BF012006904FF4A020079002200B
:1024E0000C9041050D9104210E91D8210F910221EC
:1024F00010911191129106A8FFF7BEF908B1FEF7ED
:102500005FF8FEF7A1FC08B1FEF75AF80F20019022
:1025100002200290002003904FF4A05004904FF44A
:1025200080500590072101A8FFF784F808B1FEF755
:1025300047F813B000BD0000403802400070004072
:102540000348006840F470000149086070470000CB
:1025500088ED00E000BFFEE702480068C0F30220FB
:10256000704700000CED00E010B5002804DB0A07FE
:10257000130E054A135406E00A07140E034A00F02E
:102580000F031B1FD45410BD00E400E018ED00E061
:10259000FFF768FEFEF740FBFFF776FFFFF7B0FEA0
:1025A000FFF78CFEFFF7F2FE002007E00021124A41
:1025B00042F82010114A42F82010401CB0F5805F0C
:1025C000F4D34FF480520C490D48FFF76FFD4FF4E0
:1025D00080520A490A48FFF7ABFC0948806C08B1F1
:1025E000FDF7EEFF07E001210648FEF7F3FA4FF48E
:1025F0007A70FEF7D5F9F6E71C0100201C41002097
:1026000010000020000402404FF04070E1EE100A7C
:1026100070470006101600061016000000000000AB
:10262000000001020304060708090000000001027F
:1026300003040000542600080000002010000000E1
:102640003402000864260008100000207087000093
:10265000500200080000000010000000010000000F
:042660000024F4005E
:04000005080001F9F5
:00000001FF
